:100000000C942A000C9447000C9447000C94470071
:100010000C9447000C9447000C9447000C94470044
:100020000C9447000C9447000C9447000C94470034
:100030000C9447000C9447000C9464010C94470006
:100040000C9447000C9447000C9447000C94470014
:100050000C94470011241FBECFE5D4E0DEBFCDBF16
:1000600013E0A0E6B0E0EEE8F0E102C005900D92EA
:10007000A63CB107D9F713E0A6ECB3E001C01D928E
:10008000A93DB107E1F70E940D020C9445080C94BC
:1000900000009C01E199FECF3FBB2EBBE09A8DB3DF
:1000A00008959C01E199FECF3FBB2EBB6DBB0FB6FF
:1000B000F894E29AE19A0FBE08955F9903C020E098
:1000C00030E003C08CB1282F30E0C90108951F93A0
:1000D000182F8A3019F48DE00E9467005D9BFECFD7
:1000E0001CB980E090E01F91089584B7806884BFB8
:1000F00084B7806884BF14BA8FEF85BB87BB88BB89
:1001000010BC87E189B986E880BD88E18AB9579A31
:1001100087B1807E87B987B1806C87B93D9A86B1F7
:10012000876086B986B1886886B9789408958F3ECD
:10013000C1F0803F38F48F3BC1F08F3DA1F08F3785
:1001400051F415C08B3F49F08D3F19F0873F19F4EA
:1001500006C081E0089580E0089582E0089583E07C
:10016000089584E0089585E0089586E0089587E085
:10017000089580E690E00E94D90420E030E06FEF1F
:100180004CE550E068BB84EC99E0FA013197F1F757
:100190000197D9F718BA84EC99E0FA013197F1F791
:1001A0000197D9F72F5F3F4F2530310559F78FEF72
:1001B00088BB08952091C60300D000D0EDB7FEB7EC
:1001C00031968AE890E0ADB7BEB712969C938E93B5
:1001D0001197228313820E94C40420E00F900F9095
:1001E0000F900F904CE550E011C08C9188BB88EEC9
:1001F00093E0FA013197F1F70197D9F7119683E06F
:10020000A23CB80791F72F5F233019F0AAEBB3E0B7
:10021000ECCF8FEF88BB0895FF920F931F93CF937E
:10022000DF93F82E8FEF88BB1092C7031092C8039C
:100230001092C903C0E0D4EB0EEA10E093B38091B2
:10024000B5039817D9F383B38F3FC1F3CE0101975C
:10025000F1F783B3E091C703F0E0E153FC4F9081E5
:10026000891749F500D0EDB7FEB7128301830E94CC
:10027000C404E091C703F0E0E153FC4F808188BBE8
:100280008091C8038F5F8093C8038091C8030F904B
:100290000F908F1521F40E94DA0081E00FC083B324
:1002A0008093B5038091C7038F5F8093C703CE010E
:1002B0000197F1F7C3CF0E94B90080E0DF91CF91A1
:1002C0001F910F91FF9008951F920F920FB60F92FA
:1002D00011242F933F934F935F936F937F938F934B
:1002E0009F93AF93BF93EF93FF9385B18093D00318
:1002F0002091D00300D000D0EDB7FEB7319688EB47
:1003000090E0ADB7BEB712969C938E93119722835F
:1003100013820E94C4048091D0038091D0030F9077
:100320000F900F900F90853538F489EC90E00E9483
:10033000D90481E08093C6038091D003853558F0BD
:100340008091D0038A3A38F48DEE90E00E94D9046F
:1003500082E08093C6038091D0038A3A38F081E12D
:1003600091E00E94D90483E08093C603FF91EF914E
:10037000BF91AF919F918F917F916F915F914F91BD
:100380003F912F910F900FBE0F901F901895EF92F5
:10039000FF920F931F93CF93DF93CFECD3E0082FFF
:1003A00010E07E01E00EF11E23C00E943A0468E0D6
:1003B00070E00E948B078F5F8093CE039091CE03F5
:1003C0008091CB03981749F40E943A0468E070E0EA
:1003D0000E948B078F5F8093CE038091CE03809322
:1003E000CB03E091CE03F0E0E754FC4F808189938A
:1003F000CE15DF05D1F6E199FECF89EB93E06FECE6
:1004000073E0A80121E530E00E946604DF91CF91FE
:100410001F910F91FF90EF9008952F923F924F926E
:100420005F926F927F928F929F92AF92BF92CF9284
:10043000DF92EF92FF920F931F93CF93DF930E946F
:1004400075001092C60382E08093B60383E0809328
:10045000B70384E08093B80381E08093D20306EA77
:1004600013E0A12C74EBB72EDD24D39466E0E62EC6
:1004700055E5652E53E0752E46E7442E43E0542E95
:1004800030EA232E31E0332E25E0F22ECCE5D0E009
:1004900092E0C92E82E5882E81E0982E1093D40335
:1004A0000093D3031093D6030093D503C8010E9491
:1004B00082048093CC038091CC038CB98091C603D5
:1004C000833009F4E1C0843038F4813009F480C00D
:1004D000823008F0B2C009C0853009F419C18530F6
:1004E00008F4FEC08630D1F673C1E199FECFE199E0
:1004F000FECF1FBA1EBAE09A8DB38093CA03823032
:1005000089F0833028F48823B9F18130A9F507C038
:100510008430F1F0843088F0853071F522C080930A
:10052000D2032CC08093D20383E08093B60384E08F
:100530008093B703F092B80321C083E08093D20385
:1005400084E08093B603F092B703E092B80316C03C
:100550008093D203F092B603E092B70387E08093D2
:10056000B803F092D203E092B60387E08093B7031A
:1005700088E08093B80302C0D092D20383B38F3F48
:1005800009F4EFC0C5010197F1F783B38F3F09F478
:10059000E8C085E391E00E94D9048091D20300D0A5
:1005A00000D0EDB7FEB73196ADB7BEB712969C92AC
:1005B0008E921197828313820E94C4040F900F9031
:1005C0000F900F9089E691E00E94D904369AC9C035
:1005D0008091B6030E94C701E199FECF8FEC93E0B2
:1005E00069EB73E042E050E029E430E00E944A0405
:1005F00020E030E00EC0F901E153FC4F808188BB60
:1006000080E197E2FE013197F1F70197D9F72F5F6B
:100610003F4F8091B60390E02817390764F380912B
:10062000B6030E940C018093C9038091C9038130F5
:1006300009F053C0C092C60394C08091B7030E94D2
:10064000C70120E030E00EC0F901E153FC4F80818A
:1006500088BB80E197E2FE013197F1F70197D9F766
:100660002F5F3F4F8091B70390E02817390764F35D
:100670008091B7030E940C018093C9038091C90344
:10068000813059F583E026C08091B8030E94C701EC
:1006900020E030E00EC0F901E153FC4F808188BBBF
:1006A00080E197E2FE013197F1F70197D9F72F5FCB
:1006B0003F4F8091B80390E02817390764F3809189
:1006C000B8030E940C018093C9038091C903813053
:1006D00021F484E08093C60344C01092C60341C055
:1006E00000D0EDB7FEB7328221820E94C4040F9081
:1006F0000F908DE292E00E94D90486ED92E00E9474
:10070000D90480E293E00E94D904F092C60329C084
:1007100083B38F3F09F4C2CEC5010197F1F783B3CC
:100720008093CD0383B38F3F09F4B8CE83B38E3F5C
:1007300031F083B38F3719F083B38F3BA9F4E1997C
:10074000FECFE199FECF1FBA1EBADDBA0FB6F894FC
:10075000E29AE19A0FBE87E393E00E94D904E09207
:10076000C6031092CA039ACE83B30E949700809367
:10077000CD038091CD0300D000D0EDB7FEB7319608
:10078000ADB7BEB712967C926E9211978283138298
:100790000E94C4040F900F900F900F90E199FECF2C
:1007A0008091CD03E199FECF1FBA1EBA8DBB0FB663
:1007B000F894E29AE19A0FBE00D0EDB7FEB75282EC
:1007C00041820E94C404E092C6030F900F9066CE4F
:1007D000FFCFA0E0B0E0EFEEF3E00C94F407EC0103
:1007E000A880B980CA80DB80A114B104C104D104FF
:1007F00041F484E2A82E89EDB82E8BE5C82E87E05F
:10080000D82EC601B5012DE133EF41E050E00E9442
:10081000D10727EA31E440E050E00E94B2077B01B3
:100820008C01C601B5012DE133EF41E050E00E949B
:10083000D107CA01B9012CEE34EF4FEF5FEF0E94F0
:10084000B2076E0D7F1D801F911F97FF04C061507E
:10085000704080409048688379838A839B839B01A2
:100860003F77C901CDB7DEB7EAE00C9410080E94CB
:10087000E903089582EC93E00E94E9030895A0E063
:10088000B0E08093C2039093C303A093C403B093DA
:10089000C5030895A0E0B0E0E0E5F4E00C94F607AD
:1008A0007C01EB018A01690109C0CE012196F601A4
:1008B0000995F70181937F01015010400115110541
:1008C000A1F7CDB7DEB7E8E00C941208A0E0B0E0E5
:1008D000ECE6F4E00C94F607EC017B018A01690177
:1008E00009C0CE012196F70161917F01F6010995BA
:1008F0000150104001151105A1F7CDB7DEB7E8E0B2
:100900000C941208CF93DF93EC014B8140FF1AC087
:1009100046FF0AC04F7B4B838E819F8101969F8348
:100920008E838A81282F2BC042FF13C0E881F98172
:100930008081282F332727FD30952115310529F493
:1009400040624B832FEF3FEF1BC03196F983E88362
:1009500011C0EA85FB85CE0109959C0197FF0AC06D
:100960009B812F5F3F4F11F080E201C080E1892B16
:100970008B83E8CF8E819F8101969F838E8330E0A9
:10098000C901DF91CF910895A0E0B0E0EAECF4E076
:100990000C94FC07FE013596619171918091D5030D
:1009A0009091D603AF010E940E052096E2E00C94D0
:1009B00018080F931F93CF93DF938C01E091D50319
:1009C000F091D603838181FF21C0C0E0D0E00DC04B
:1009D000E091D503F091D60320853185BF01F9015F
:1009E0000995892B11F0CFEFDFEFF80181918F018D
:1009F000882371F7E091D503F091D60320853185E6
:100A00008AE0BF01F9010995892B11F0CFEFDFEFE3
:100A1000CE01DF91CF911F910F910895ABE0B0E02F
:100A2000E4E1F5E00C94EC073C012B015A01FC01D8
:100A300017821682838181FD03C06FEF7FEFC6C1ED
:100A40009AE0892E1E010894211C311CF301238198
:100A5000F20123FD859123FF81912F01882309F461
:100A6000B2C1853239F423FD859123FF81912F0195
:100A7000853229F490E0B3010E940107E7CF982F57
:100A8000FF24EE249924FFE1FF15D0F09B3269F09A
:100A90009C3228F4903259F0933291F40EC09D327A
:100AA00049F0903369F441E024C052E0F52A84E033
:100AB000F82A28C098E0F92A25C0E0E1FE2A22C0E1
:100AC000F7FC29C0892F80538A3070F4F6FE05C0E8
:100AD000989C902C1124980E15C0E89CE02C1124B1
:100AE000E80EF0E2FF2A0EC09E3229F4F6FC6BC13C
:100AF00040E4F42A07C09C3619F450E8F52A02C0F5
:100B0000983649F4F20123FD959123FF91912F012D
:100B1000992309F0B8CF892F8554833018F080527B
:100B2000833038F444E050E0A40EB51E5FE35983EF
:100B30000FC0933631F0933779F0933509F056C0F2
:100B400020C0F5018081898342E050E0A40EB51EEB
:100B5000610101E010E012C0F501C080D180F6FC17
:100B600003C06FEF7FEF02C0692D70E042E050E0FC
:100B7000A40EB51EC6010E94F6068C015FE7F522A1
:100B800014C0F501C080D180F6FC03C06FEF7FEF89
:100B900002C0692D70E042E050E0A40EB51EC6010F
:100BA0000E94EB068C0150E8F52AF3FE07C01AC03C
:100BB00080E290E0B3010E940107EA948E2D90E05C
:100BC00008171907A8F30EC0F601F7FC8591F7FE88
:100BD00081916F0190E0B3010E940107E110EA9456
:100BE000015010400115110579F7EAC0943611F053
:100BF000993669F5F7FE08C0F501208131814281FF
:100C0000538184E090E00AC0F501808191819C01CC
:100C1000442737FD4095542F82E090E0A80EB91E7E
:100C20009FE6F92257FF09C05095409530952195D0
:100C30003F4F4F4F5F4FE0E8FE2ACA01B901A101C3
:100C40002AE030E00E942D07D82ED21840C09537F8
:100C500029F41F2D1F7E2AE030E01DC01F2D197FB3
:100C60009F3661F0903720F4983509F0ACC00FC082
:100C7000903739F0983709F0A6C004C028E030E07A
:100C80000AC0106114FD146020E130E004C014FDBE
:100C9000166020E132E017FF08C0F5016081718124
:100CA0008281938144E050E008C0F5018081918108
:100CB000BC0180E090E042E050E0A40EB51EA1012E
:100CC0000E942D07D82ED2188FE7F82EF122F6FEBB
:100CD0000BC05EEFF522D91438F4F4FE07C0F2FC25
:100CE00005C08FEEF82202C01D2D01C0192DF4FEA3
:100CF0000DC0FE01ED0DF11D8081803319F499EED8
:100D0000F92208C01F5FF2FE05C003C08F2D867850
:100D100009F01F5F0F2DF3FC14C0F0FE0FC01E156D
:100D200010F09D2C0BC09D2C9E0C911A1E2D06C000
:100D300080E290E0B3010E9401071F5F1E15C0F31F
:100D400004C01E1510F4E11A01C0EE2404FF0FC008
:100D500080E390E0B3010E94010702FF1DC001FD86
:100D600003C088E790E00EC088E590E00BC0802FBC
:100D7000867891F001FF02C08BE201C080E2F7FCAF
:100D80008DE290E0B3010E94010706C080E390E08D
:100D9000B3010E9401079A94D914C0F3DA94F101C7
:100DA000ED0DF11D808190E0B3010E940107DD206F
:100DB000A9F706C080E290E0B3010E940107EA941F
:100DC000EE20C1F743CEF30166817781CB012B96EC
:100DD000E2E10C940808FC0105906150704001109C
:100DE000D8F7809590958E0F9F1F0895FC01615054
:100DF000704001900110D8F7809590958E0F9F1F3D
:100E000008950F931F93CF93DF938C01EB018B8198
:100E100081FF1BC082FF0DC02E813F818C819D818F
:100E20002817390764F4E881F9810193F983E8838D
:100E300006C0E885F985802F0995892B31F48E81CC
:100E40009F8101969F838E8302C00FEF1FEFC80121
:100E5000DF91CF911F910F910895FA01AA272830B1
:100E600051F1203181F1E8946F936E7F6E5F7F4F77
:100E70008F4F9F4FAF4FB1E03ED0B4E03CD0670FF3
:100E8000781F891F9A1FA11D680F791F8A1F911D46
:100E9000A11D6A0F711D811D911DA11D20D009F496
:100EA00068943F912AE0269F11243019305D3193D8
:100EB000DEF6CF010895462F4770405D4193B3E0C1
:100EC0000FD0C9F7F6CF462F4F70405D4A3318F068
:100ED000495D31FD4052419302D0A9F7EACFB4E019
:100EE000A6959795879577956795BA95C9F70097D1
:100EF0006105710508959B01AC010A2E0694579572
:100F0000479537952795BA95C9F7620F731F841FC8
:100F1000951FA01D089597FB092E07260AD077FD7F
:100F200004D00CD006D000201AF4709561957F4F44
:100F30000895F6F7909581959F4F0895AA1BBB1BC6
:100F400051E107C0AA1FBB1FA617B70710F0A61BC9
:100F5000B70B881F991F5A95A9F780959095BC01EA
:100F6000CD010895629FD001739FF001829FE00D33
:100F7000F11D649FE00DF11D929FF00D839FF00D18
:100F8000749FF00D659FF00D9927729FB00DE11DC4
:100F9000F91F639FB00DE11DF91FBD01CF011124A1
:100FA000089597FB092E05260ED057FD04D04BD08F
:100FB0000AD0001C38F450954095309521953F4F4C
:100FC0004F4F5F4F0895F6F7909580957095619516
:100FD0007F4F8F4F9F4F08952F923F924F925F9276
:100FE0006F927F928F929F92AF92BF92CF92DF9239
:100FF000EF92FF920F931F93CF93DF93CDB7DEB79E
:10100000CA1BDB0B0FB6F894DEBF0FBECDBF099431
:101010002A88398848885F846E847D848C849B8488
:10102000AA84B984C884DF80EE80FD800C811B8196
:10103000AA81B981CE0FD11D0FB6F894DEBF0FBEC5
:10104000CDBFED010895A1E21A2EAA1BBB1BFD0125
:101050000DC0AA1FBB1FEE1FFF1FA217B307E40797
:10106000F50720F0A21BB30BE40BF50B661F771FEF
:10107000881F991F1A9469F76095709580959095CF
:0E1080009B01AC01BD01CF010895F894FFCF94
:10108E000A536F72727920796F75206C6F736520B9
:10109E003A28202E2E2E2E205374617274696E679C
:1010AE00204F7665722E2E2E0A000A436F6E6772DF
:1010BE006174756C6174696F6E732E20596F752033
:1010CE0077696E2053746167652025640A000A43B0
:1010DE006F727265637421004144432072656164CE
:1010EE00696E673A2025640A00426567696E20536F
:1010FE007461676520312E20526570656174204CD5
:10110E0045442073657175656E63652E0042656793
:10111E00696E20537461676520322E2052657065AA
:10112E006174204C45442073657175656E63652E40
:10113E0000426567696E20537461676520332E2007
:10114E00526570656174204C4544207365717565F8
:10115E006E63652E000A57656C636F6D6520746F44
:10116E002053696D6F6E73204C45442047616D6549
:10117E0021000A446966666963756C7479204C6552
:10118E0076656C203A202564000A596F75722070BE
:10119E006F74656E74696F6D657465722077696CB6
:1011AE006C206E6F772063686F6F736520796F7533
:1011BE00722067616D65206C6576656C2E2E0A0057
:1011CE000A4279207265616368696E67207468658A
:1011DE0020656E642C2077652077696C6C206E6FAD
:1011EE007720616C6C6F7720796F7520746F206338
:1011FE0068616E676520746865206C6576656C2025
:10120E006F6620646966666963756C747920666FB3
:10121E007220746869732067616D6520746865203B
:10122E006E6578742074696D6520796F75206465BC
:10123E006369646520746F2072756E2069742E2048
:10124E002D2076696120454550524F4D000A0A4CBB
:10125E006576656C73206F66206469666669637572
:10126E006C7479206172652074686520666F6C6C91
:10127E006F77696E673A200A4C6576656C2031206F
:10128E002D204D61782034204C4544732028736105
:10129E006D65206173206265666F7265290A4C6503
:1012AE0076656C2032202D204D61782035204C45FE
:1012BE004473200A4C6576656C2033202D204D61D9
:1012CE00782036204C454473200A4C6576656C2098
:1012DE0034202D204D61782037204C454473200A50
:1012EE004C6576656C2035202D204D617820382098
:1012FE004C45447320000A50726573732074686500
:10130E0020636F72657373706F6E64696E6720739E
:10131E00776974636820746F2063686F6F736520DC
:10132E006C6576656C2E20692E6520737769746303
:10133E0068203320666F72206C6576656C203300F2
:10134E005377697463682036206F72203720746F6C
:10135E0020517569742E000A0A5468616E6B2079EB
:10136E006F7520666F7220706C6179696E672E20C2
:10137E004279652100546865206C6576656C20792C
:10138E006F7520686176652063686F73656E20697E
:10139E00732025640A000A4C6F61642067616D65D5
:1013AE00206261636B2075702077697468202E65EA
:1013BE0065702066696C6520616E6420796F757248
:1013CE002073657421000000000300000000670018
:1013DE005D000000FFFF02030420FEFDFBF7EFDFC0
:0613EE00BF7F01000000BA
:00000001FF
